{
    "contractName": "chainbridge",
    "abi": [
        {
            "inputs": [
                {
                    "internalType": "uint256",
                    "name": "chainBridgeID",
                    "type": "uint256"
                },
                {
                    "internalType": "uint256",
                    "name": "netWorkId",
                    "type": "uint256"
                }
            ],
            "stateMutability": "nonpayable",
            "type": "constructor"
        },
        {
            "inputs": [
                {
                    "internalType": "uint256",
                    "name": "chainBridgeID",
                    "type": "uint256"
                }
            ],
            "name": "isActiveChain",
            "outputs": [
                {
                    "internalType": "bool",
                    "name": "",
                    "type": "bool"
                }
            ],
            "stateMutability": "view",
            "type": "function"
        }
    ],
    "bytecode": "608060405234801561001057600080fd5b5060405161013f38038061013f83398101604081905261002f9161005e565b60008281526020818152604080832094855560019485019390935583905220805460ff19169091179055610082565b6000806040838503121561007157600080fd5b505080516020909101519092909150565b60af806100906000396000f3fe6080604052348015600f57600080fd5b506004361060285760003560e01c8063ee3cd72114602d575b600080fd5b604d60383660046061565b60009081526001602052604090205460ff1690565b604051901515815260200160405180910390f35b600060208284031215607257600080fd5b503591905056fea2646970667358221220cff20b3d1b6ccc3841df8ff9847919bdae41027c5a8a68355225e570c6c8cc8064736f6c63430008060033",
    "sourcePath": "c:/Users/samuel/Dropbox/My PC (LAPTOP-H7J194TT)/Documents/blockchain/chainBridge/contracts/main/chainBridge.sol",
    "compiler": {
        "name": "solc",
        "version": "0.8.6+commit.11564f7e"
    },
    "functionHashes": {
        "isActiveChain(uint256)": "ee3cd721"
    },
    "gasEstimates": {
        "creation": {
            "codeDepositCost": "35000",
            "executionCost": "infinite",
            "totalCost": "infinite"
        },
        "external": {
            "isActiveChain(uint256)": "2416"
        }
    }
}